:100000000C9462000C948A000C948A000C948A0070
:100010000C948A000C948A000C948A000C94F601CB
:100020000C948A000C948A000C948A000C948A0028
:100030000C948A000C948A000C948A000C948A0018
:100040000C948C040C948A000C94C4010C949E01B2
:100050000C948A000C948A000C948A000C948A00F8
:100060000C948A000C948A000000000024002700F1
:100070002A000000000023002600290000000000E4
:10008000250028002B0004040404040404040202D4
:100090000202020203030303030301020408102007
:1000A0004080010204081020010204081020000012
:1000B0000008000201000003040700000000000027
:1000C0000000360C11241FBECFEFD8E0DEBFCDBF3D
:1000D00011E0A0E0B1E0E4E6FEE102C005900D927F
:1000E000A234B107D9F722E0A2E4B1E001C01D9229
:1000F000AB3BB207E1F710E0C2E6D0E004C02197C5
:10010000FE010E94160FC136D107C9F70E94D6041E
:100110000C94300F0C940000CF92DF92EF92FF927C
:100120000F931F93CF93DF936C017A018B01C0E093
:10013000D0E0CE15DF0581F0D8016D918D01D6019B
:10014000ED91FC910190F081E02DC6010995892B7C
:1001500011F02196EECF7E01C701DF91CF911F9163
:100160000F91FF90EF90DF90CF900895089580E079
:1001700090E00895FC01538D448D252F30E0842FAD
:1001800090E0821B930B541710F0CF9608950197BF
:100190000895FC01918D828D981761F0828DDF01A9
:1001A000A80FB11D5D968C91928D9F5F9F73928F6A
:1001B00090E008958FEF9FEF0895FC01918D828D5F
:1001C000981731F0828DE80FF11D858D90E008952C
:1001D0008FEF9FEF0895FC01918D228D892F90E084
:1001E000805C9F4F821B91098F739927089582E449
:1001F00091E00E94EB0021E0892B09F420E0822F9E
:100200000895FC01848DDF01A80FB11DA35ABF4FD3
:100210002C91848D90E001968F739927848FA68905
:10022000B7892C93A089B1898C91837080648C9359
:10023000938D848D981306C00288F389E02D808108
:100240008F7D80830895EF92FF920F931F93CF933A
:10025000DF93EC0181E0888F9B8D8C8D981305C016
:10026000E889F989808185FD26C0F62E0B8D10E086
:100270000F5F1F4F0F731127E02E8C8DE8120CC0FB
:100280000FB607FCFACFE889F989808185FFF5CFA1
:10029000CE010E940101F1CF8B8DFE01E80FF11D0F
:1002A000E35AFF4FF0829FB7F8940B8FEA89FB89DE
:1002B000808180620AC09FB7F894EE89FF896083CD
:1002C000E889F98980818370806480839FBF81E0A1
:1002D00090E0DF91CF911F910F91FF90EF900895E3
:1002E000CF93DF93EC01888D8823C9F0EA89FB89DD
:1002F000808185FD05C0A889B9898C9186FD0FC0D4
:100300000FB607FCF5CF808185FFF2CFA889B989A8
:100310008C9185FFEDCFCE010E940101E7CFDF91E7
:10032000CF91089580E090E0892B29F00E94F7009A
:1003300081110C94000008950E942B0F1F920F92C0
:100340000FB60F9211242F933F934F935F936F93A8
:100350007F938F939F93AF93BF93EF93FF9382E429
:1003600091E00E940101FF91EF91BF91AF919F91A8
:100370008F917F916F915F914F913F912F910F904E
:100380000FBE0F901F9018951F920F920FB60F92ED
:1003900011242F938F939F93EF93FF93E09152013A
:1003A000F09153018081E0915801F091590182FD53
:1003B00012C0908180915B018F5F8F7320915C01EF
:1003C000821751F0E0915B01F0E0EE5BFE4F958FFC
:1003D00080935B0101C08081FF91EF919F918F918C
:1003E0002F910F900FBE0F901F9018951F920F9294
:1003F0000FB60F9211242F933F934F935F936F93F8
:100400007F938F939F93AF93BF93CF93DF93EF939C
:10041000FF932091E00130E0F901E255FF4F849114
:10042000F901E656FF4FD491F901EA57FF4FC49105
:10043000CC2379F081110E940F04EC2FF0E0EE0F35
:10044000FF1FEE58FF4FA591B491EC91ED2381E091
:1004500009F480E02091E4013091E5012F5F3F4FE6
:100460003093E5012093E4019091E301953618F073
:1004700096E09093DF019091DF019430C9F128F468
:10048000923069F09330D1F05EC0953009F451C0DC
:10049000963009F058C091E09093B00251C081119C
:1004A00052C02091E4013091E5012436310508F471
:1004B00042C01092B0021092E3011CC0813009F0DA
:1004C00042C0E091E30191E09E0F9093E301F0E0E0
:1004D0002091E4013091E501EE0FFF1FE152FE4F44
:1004E000308727831092E5011092E40194E029C03F
:1004F000811117C0E091E30191E09E0F9093E30119
:10050000F0E02091E4013091E501EE0FFF1FE15290
:10051000FE4F308727831092E5011092E40193E0AB
:1005200010C02091E4013091E5012536310558F0E5
:1005300007C0811108C01092E5011092E40103C0C8
:1005400095E09093DF019091E2019923B9F0811138
:100550000AC08091E101882321F08091E10161E0EE
:1005600009C02D9A0BC08091E101882331F0809160
:10057000E10160E00E94380401C02D98FF91EF91E5
:10058000DF91CF91BF91AF919F918F917F916F91AB
:100590005F914F913F912F910F900FBE0F901F9041
:1005A0001895CF92DF92EF92FF92CF93DF93EC01F9
:1005B000072E000C880B990B0E94850D6B017C01A6
:1005C00020E030E040E45FE30E94350E20E030E0C0
:1005D00048E452E40E94DB0C0E944D0DC617D70779
:1005E000D4F020E030E040EA5FE3C701B6010E94AA
:1005F000350E20E030E048E452E40E94DB0C20E0BD
:1006000030E040E85FE30E946A0C0E944D0D21E05B
:100610006C177D070CF420E0822F90E0DF91CF91E2
:10062000FF90EF90DF90CF900895009769F0FC0164
:1006300001900020E9F73197AF01481B590BBC012D
:1006400082E491E00C948C0080E090E00895CF93D8
:10065000DF930E941503EC018EE391E00E941503E5
:100660008C0F9D1FDF91CF9108958F929F92AF9233
:10067000BF920F931F93CF93DF93CDB7DEB7A197B0
:100680000FB6F894DEBF0FBECDBF19A2423008F4FA
:100690004AE08E010F5D1F4F842E912CA12CB12CAE
:1006A000A50194010E94B20EE62FB901CA010150C2
:1006B0001109EA3014F4E05D01C0E95CD801EC9363
:1006C000232B242B252B61F7C8010E941503A1962B
:1006D0000FB6F894DEBF0FBECDBFDF91CF911F9153
:1006E0000F91BF90AF909F908F900895CF92DF921F
:1006F000EF92FF92CF93DF936B017C016DE282E476
:1007000091E00E942301EC0166277727CB016C1949
:100710007D098E099F094AE00E9435038C0F9D1FB9
:10072000DF91CF91FF90EF90DF90CF9008958F925F
:100730009F92AF92BF92CF92DF92EF92FF920F9370
:100740001F93CF93DF93EB01E881F981DC011C96C5
:100750006D917C911D97E617F7070CF04EC0BF0115
:10076000660F771F1A968D919C911B97DB01A80F3E
:10077000B91FAD90BC90E170FF276F01B1E0CB26AF
:10078000EF2B19F48CE99FEF02C084E690E0790129
:100790008A014C01820E931EB401C5010E94D10250
:1007A000892B99F48E0C9F1CB401C5010E94D102C3
:1007B000892B71F4B701680D791DC5010E94D10222
:1007C000892BF1F023E030E005C021E030E002C0E9
:1007D00022E030E0F8018081918101968217930731
:1007E0001CF49183808307C01182108288819981D3
:1007F000019699838883C60105C081E090E002C01C
:100800008FEF9FEFDF91CF911F910F91FF90EF90AE
:10081000DF90CF90BF90AF909F908F9008958330DE
:1008200081F028F4813099F08230A1F0089587306A
:10083000A9F08830B9F08430D1F4809180008F7DA8
:1008400003C0809180008F7780938000089584B5E5
:100850008F7702C084B58F7D84BD08958091B000EC
:100860008F7703C08091B0008F7D8093B000089592
:100870001F93CF93DF93282F30E0F901E255FF4F0C
:100880008491F901E656FF4FD491F901EA57FF4FE1
:10089000C491CC23C1F0162F81110E940F04EC2FBC
:1008A000F0E0EE0FFF1FE458FF4FA591B4919FB702
:1008B000F894111104C08C91D095D82302C0EC910A
:1008C000DE2BDC939FBFDF91CF911F9108953FB73F
:1008D000F8948091B7029091B802A091B902B091BA
:1008E000BA0226B5A89B05C02F3F19F00196A11D9D
:1008F000B11D3FBFBA2FA92F982F8827820F911DB6
:10090000A11DB11DBC01CD0142E0660F771F881FFC
:10091000991F4A95D1F708951F920F920FB60F9223
:1009200011242F933F938F939F93AF93BF93809105
:10093000B3029091B402A091B502B091B602309189
:10094000B20223E0230F2D3720F40196A11DB11D23
:1009500005C026E8230F0296A11DB11D2093B20207
:100960008093B3029093B402A093B502B093B60201
:100970008091B7029091B802A091B902B091BA02E9
:100980000196A11DB11D8093B7029093B802A09368
:10099000B902B093BA02BF91AF919F918F913F91ED
:1009A0002F910F900FBE0F901F901895CF93DF934C
:1009B000CDB7DEB76C970FB6F894DEBF0FBECDBFD4
:1009C000789484B5826084BD84B5816084BD85B52A
:1009D000826085BD85B5816085BD80916E00816036
:1009E00080936E00109281008091810082608093DC
:1009F00081008091810081608093810080918000DE
:100A00008160809380008091B10084608093B10008
:100A10008091B00081608093B00080917A00846002
:100A200080937A0080917A00826080937A0080912E
:100A30007A00816080937A0080917A008068809348
:100A40007A001092C100E0915201F091530112E03E
:100A50001083E0914E01F0914F011082E09150011E
:100A6000F09151018FEC808310925A01E091560170
:100A7000F091570186E08083E0915401F091550197
:100A8000808180618083E0915401F09155018081E3
:100A900088608083E0915401F091550180818068E5
:100AA0008083E0915401F091550180818F7D808396
:100AB00084E191E00E942703F8941093B000109312
:100AC000B10084E68093B3001092B20010937000DE
:100AD00078941093DF011092E3018091E00190E09F
:100AE000FC01E656FF4F2491FC01EA57FF4F849129
:100AF0008823C9F090E0880F991FFC01E859FF4F47
:100B000045915491FC01E458FF4FA591B4919FB7D2
:100B1000F894FA0180812095822380838C91E22FC2
:100B2000E823EC939FBF82E291E00E94270310E24A
:100B3000212E312C44244A94542C320180910001FE
:100B40008093E00126EE31E03C872B878091E30122
:100B500090E09E878D878091B00290E0988B8F8780
:100B60008091DF01853009F0D4C08091E801909137
:100B7000E901885891098D35910588F48091E30148
:100B8000843041F48091EA019091EB01809747977E
:100B900008F4F6C08091E301843408F04EC08091DF
:100BA000E3018A3108F426C18091E6019091E701C2
:100BB000843F914038F41A8619864D825E826F8296
:100BC000788638C08091E8019091E90185974B972C
:100BD00008F010C1ECEEF1E082E090E0C12CD12CE5
:100BE0007601AC014F5F5F4F2091E30130E0421787
:100BF00053075CF4DF0112972D913C912750310986
:100C00002730310508F4DAC0CA0101979595879518
:100C10009A8789870C971CF41A861986EBC0CD82B7
:100C2000DE82EF82F88684E090E03CC0CD82DE82F6
:100C3000EF82F8868BE090E035C08091EA019091D8
:100C4000EB01825491098E9708F0A9CF80E090E0E3
:100C500040E050E0BA01FC01E451FE4F20813181B7
:100C6000295031092930310508F099CFFC01E251B2
:100C7000FE4F20813181275131092231310508F0A1
:100C800090C0440F551F661F771F4160049680383F
:100C9000910509F73A8629864D835E836F837887AD
:100CA00083E090E09A8389838FE291E00E941503AC
:100CB00080910001909101018230910531F44AE068
:100CC0006AE070E080E090E00EC09C0121503109A4
:100CD000B901032E000C880B990B37FF03C00E944B
:100CE000760303C04AE00E94350385E391E00E9449
:100CF00027036D817E818F81988540E10E943503B5
:100D00008EE391E00E94150382E08093DF01109250
:100D1000E301809100019091010101968B309105D2
:100D200011F482E090E090930101809300010E9411
:100D300067046B017C0108EC802E912CA12CB12C56
:100D40000E946704DC01CB018C199D09AE09BF0923
:100D5000883E9340A105B10598F331E0831A9108CC
:100D6000A108B10888EEC80E83E0D81EE11CF11C72
:100D700081149104A104B10419F70E949201DECEFE
:100D80008091EC019091ED010997099708F002CF4D
:100D90001A8619864D825E826F827886E3E0F0E0E3
:100DA0005FC520813181265031092730310508F097
:100DB000F6CE440F551F661F771F68CF2081318103
:100DC000235131092F30310548F4CC0CDD1CEE1CC9
:100DD000FF1C6894C0F80296349603CF20813181BD
:100DE0002A5031092930310528F4CC0CDD1CEE1CC9
:100DF000FF1CF1CF8091E3018A3108F459C0809142
:100E0000E6019091E7018032934008F4D4CE8091BE
:100E1000E8019091E901C697869708F049C0809152
:100E2000EA019091EB01C697869708F041C0EEEE7B
:100E3000F1E083E090E0C12CD12C7601AC014F5F52
:100E40005F4F2091E30130E04217530754F4DF0174
:100E500012972D913C912C5031092B30310560F0C7
:100E6000CA010197959587959A8789870C970CF009
:100E7000DDCE1A8619861CC02081318125523109A8
:100E80002B31310548F4CC0CDD1CEE1CFF1C6894A2
:100E9000C0F802963496D2CF208131812C5031098E
:100EA0002A30310528F4CC0CDD1CEE1CFF1CF1CFE0
:100EB0008091E301823208F450C08091E801909162
:100EC000E9010697079708F048C0ECEEF1E082E0F0
:100ED00090E0C12CD12C76019C012F5F3F4F4091B7
:100EE000E30150E024173507CCF4DF0112974D9150
:100EF0005C9111974E5151094731510500F5CC0CC9
:100F0000DD1CEE1CFF1C6894C0F8408151813496B2
:100F10004350510945305105F0F0C90101979595AD
:100F200087959A87898740971CF41A86198615C079
:100F3000CD82DE82EF82F8868CE090E0B3CE4D91D8
:100F40005C914C5051094B30510538F4CC0CDD1CF0
:100F5000EE1CFF1CDACF0296BFCF1C8A1B8A21E051
:100F600030E03A8B298B8091E3018D3068F41C8A44
:100F70001B8AE1E0F0E0FA8BE98B8D859E851816DF
:100F800019060CF475C0D4C029E733E0AE014D5EFC
:100F90005F4FBE016F5E7F4FCE0101960E949703A7
:100FA000892B29F729E733E0AE014D5E5F4FBE0183
:100FB0006F5E7F4FCE0101960E9497030197B9F6AD
:100FC00029E733E0AE014D5E5F4FBE016F5E7F4F9C
:100FD000CE0101960E949703892B49F6812C912C12
:100FE000540100E010E08091E30190E029893A8902
:100FF00028173907A4F529E733E0AE014D5E5F4FAE
:10100000BE016F5E7F4FCE0101960E9497037C0167
:1010100029E733E0AE014D5E5F4FBE016F5E7F4F4B
:10102000CE0101960E949703F1E0EF16F10451F40E
:10103000892B09F09CCF880C991CAA1CBB1C6894B6
:1010400080F80AC0EF2809F092CF019709F08FCFFE
:10105000880C991CAA1CBB1C0F5F1F4FC4CF1A879A
:1010600009878D829E82AF82B88621E030E03BC244
:10107000EB85FC8582E090E09A8B898B828193815D
:1010800089974E9708F054C083E090E09A8B898B43
:10109000848195810B970A9708F04AC02CEB31E0C8
:1010A000AE014D5E5F4FBE016F5E7F4FCE01019678
:1010B0000E949703892BE1F52CEB31E0AE014D5EE8
:1010C0005F4FBE016F5E7F4FCE0101960E94970376
:1010D000019771F5812C912C540100E010E02D85D1
:1010E0003E8589899A89821793070CF030C12CEBD1
:1010F00031E0AE014D5E5F4FBE016F5E7F4FCE01AE
:1011000001960E9497036C010330110509F0E3C0BA
:101110002CEB31E0AE014D5E5F4FBE016F5E7F4F45
:10112000CE0101960E949703C816D90609F4D3C0D0
:10113000EB85FC8582819381C6978697E0F4848154
:1011400095814B974597B8F4DF0116967F0196EC91
:10115000E90EF11C20E030E040E050E060E070E09B
:1011600080E090E00D911C91119709501109083011
:10117000110508F4F5C08091E301893370F1828193
:101180009381895791098335910508F41BC125C0C6
:10119000D90112966D917C91139766517109613155
:1011A000710508F035C1D701C601880F991FAA1F24
:1011B000BB1F6C017D016894C0F84E5F5F4F2C5FD0
:1011C0003F4F4B33510509F40CC1D9016D917C910E
:1011D0006A50710969307105D8F28091E301823259
:1011E00031F4828193810A97099708F421C18281A1
:1011F00093818957910983359105D0F48091E3015A
:101200008132B0F084819581CA97899788F49F01D3
:101210002A5F3F4FC12CD12C760143E050E0D90129
:101220006D917C916A5071096930710508F418C19B
:10123000828193818C549109C59778F48091E30160
:10124000843031F4848195818097479708F467C191
:101250008091E301843408F049C18091E301863430
:1012600060F1828193810C970B9708F494C125C09B
:10127000D90112966D917C9113976E517109673166
:10128000710508F0B8C1D701C601880F991FAA1FC0
:10129000BB1F6C017D016894C0F84E5F5F4F2C5FEF
:1012A0003F4F4534510509F491C1D9016D917C91AD
:1012B0006C5071096B307105D8F28091E30188356B
:1012C00008F4FBC182819381855891098B35910582
:1012D00008F4A1C1F2C12CEB31E0AE014D5E5F4FCD
:1012E000BE016F5E7F4FCE0101960E9497037C0185
:1012F0000330110581F42CEB31E0AE014D5E5F4F00
:10130000BE016F5E7F4FCE0101960E949703E816E3
:10131000F90609F00DCFC114D10459F4EA94EF286D
:1013200009F006CF880C991CAA1CBB1C689480F895
:101330000BC0CA94CD2809F0FBCEEF2809F0F8CEF7
:10134000880C991CAA1CBB1C0F5F1F4FC8CE1A87A4
:1013500009878D829E82AF82B88682E090E0A2CC1F
:1013600012960D911C911397015111090D30110521
:10137000D8F401E00E94DF0E21601496EA16FB0605
:1013800009F0F0CE2D833E834F83588700E20E9400
:10139000FA0E2B833C83A5E0B0E0BA83A983E0E397
:1013A000F0E0FA87E98780CC12960D911C91139793
:1013B000045011090530110508F0DDCE01E00E944E
:1013C000DF0EDBCF84819581CA97899708F005CF1E
:1013D0009F012A5F3F4FC12CD12C760143E050E0A2
:1013E000F4CE9F012A583F4FD9012D913C912A50AC
:1013F00031092930310508F0F0CE2CE130E03A8790
:101400002987CD82DE82EF82F8868AE090E04ACC9E
:10141000D90112966D917C911397665071096730CE
:10142000710508F0DACECC0CDD1CEE1CFF1CC5CE1D
:101430002091E301CF01820F911D820F911DDC01EC
:1014400012978D919C910A97099708F0D0CE1A8631
:1014500019864D825E826F827886E6E0F0E000C2F7
:10146000D90112966D917C91139766517109613182
:10147000710548F5D701C601880F991FAA1FBB1F28
:101480006C017D016894C0F84E5F5F4F2C5F3F4F49
:101490004332510509F0C3CE9F012A5B3F4FD9016A
:1014A0002D913C912A5031092930310508F0C0CEE8
:1014B000E0E1F0E0FA87E987CD82DE82EF82F8860C
:1014C00026E030E010C0D90112966D917C911397FF
:1014D000665071096730710508F0AACECC0CDD1C8E
:1014E000EE1CFF1CD1CF3A832983DECB848195810A
:1014F00089549109C39708F0B0CE9F012A5F3F4FEE
:10150000BF016A577F4FC12CD12C7601D9014D9173
:101510005C91495051094930510570F09ECE868149
:1015200097810997099708F093CE1A8619864D82FC
:101530005E826F82788697C1D90112964D915C9137
:1015400013974651510941315105D0F012964D91F2
:101550005C911397465051094730510508F07DCEF4
:10156000CC0CDD1CEE1CFF1C2C5F3F4F26173707F1
:1015700069F63A862986CD82DE82EF82F88673C1CB
:10158000D701C601880F991FAA1FBB1F6C017D01DF
:101590006894C0F8E9CF848195810997099708F08C
:1015A0008CCE868197818C974F9708F086CE808568
:1015B000918589974D9708F080CE9F01265F3F4F18
:1015C000C12CD12C760145E050E06FCE9F0126570B
:1015D0003F4FD9012D913C912C5031092B303105D1
:1015E00008F06BCE3A862986CD82DE82EF82F886BD
:1015F00088E090E057CBD90112966D917C911397BA
:10160000695071096930710508F057CECC0CDD1CAA
:10161000EE1CFF1C42CE84819581825491098E97E5
:1016200008F04BC08F01045C1F4F8DE190E020E07B
:1016300030E04091E30150E0445051098417950790
:10164000ACF4A80142505109DA014D915C91495026
:10165000510948305105E0F030C0D8014D915C91FE
:10166000485151094231510528F1CB010197959517
:1016700087959A8789878A9704F1C901330FAA0B46
:10168000BB0B8D839E83AF83B88789E090E00ACB44
:10169000BC016F5F7F4FD8014D915C91475051095C
:1016A00047305105D0F6220F331F216002960C5FA0
:1016B0001F4FBFCF220F331FF9CF8091E30180323C
:1016C000E1F48281938106970697B8F4848195812D
:1016D0000997099790F49F012A5F3F4FBF01625C11
:1016E0007F4FC12CD12C7601D9014D915C91465090
:1016F00051094630510508F47EC02D853E85388F4E
:101700002F8B263031050CF4FFCA8F010E5F1F4F5F
:1017100095ECC92E9DE9D92E9CE1E92E91E8F92E90
:1017200083E090E09E8B8D8BD80114966D917C9117
:101730001597AD90BC9080E090E00E94830D698F7A
:101740007A8F8B8F9C8FB50180E090E00E94830D93
:101750004B015C012DEC3CEC4CE45FE30E94350E48
:101760009B01AC01698D7A8D8B8D9C8D0E94D60C6E
:1017700087FD19C02DEC3CEC4CE45FE3698D7A8D5C
:101780008B8D9C8D0E94350E9B01AC01C501B4016F
:101790000E94D60CE82F880FFF0BEE27FF0FEE1FDD
:1017A000FF27319602C0E0E0F0E0A701960163E96F
:1017B00071E080E091E00E94A20E6F01FF0FEE0841
:1017C000FF08C626D726E826F926ED89FE89319638
:1017D000FE8BED8B0E5F1F4F2F89388DE217F307BD
:1017E00009F0A2CFCD82DE82EF82F8863A86298682
:1017F0008FEF9FEF57CAD90112964D915C911397C5
:101800004951510943315105D8F4D701C601880F18
:10181000991FAA1FBB1F6C017D016894C0F82C5F43
:101820003F4F2617370709F05FCF2EE030E03A87A9
:101830002987CD82DE82EF82F8868FE090E032CA7F
:10184000D90112964D915C91139749505109493035
:10185000510508F052CFCC0CDD1CEE1CFF1CDFCF75
:10186000FA83E98321CA87E090E01CCAE2E4F1E050
:101870001382128288EE93E0A0E0B0E08483958327
:10188000A683B78386E091E09183808385EC90E026
:101890009587848784EC90E09787868780EC90E03A
:1018A000918B808B81EC90E0938B828B82EC90E02B
:1018B000958B848B86EC90E0978B868B118E128EA5
:1018C000138E148E80910001EFEDF1E0818313827D
:1018D00008955058BB27AA270E94810C0C94FB0D39
:1018E0000E94ED0D38F00E94F40D20F039F49F3F76
:1018F00019F426F40C94EA0D0EF4E095E7FB0C9431
:10190000E40DE92F0E940C0E58F3BA176207730713
:101910008407950720F079F4A6F50C942E0E0EF4AA
:10192000E0950B2EBA2FA02D0B01B90190010C01EF
:10193000CA01A0011124FF27591B99F0593F50F407
:10194000503E68F11A16F040A22F232F342F44275F
:10195000585FF3CF469537952795A795F040539557
:10196000C9F77EF41F16BA0B620B730B840BBAF027
:101970009150A1F0FF0FBB1F661F771F881FC2F792
:101980000EC0BA0F621F731F841F48F487957795A6
:101990006795B795F7959E3F08F0B0CF9395880F60
:1019A00008F09927EE0F9795879508950E94C00D2E
:1019B00008F481E008950E94EF0C0C94FB0D0E9446
:1019C000F40D58F00E94ED0D40F029F45F3F29F02E
:1019D0000C94E40D51110C942F0E0C94EA0D0E94FE
:1019E0000C0E68F39923B1F3552391F3951B550B16
:1019F000BB27AA2762177307840738F09F5F5F4FE2
:101A0000220F331F441FAA1FA9F335D00E2E3AF020
:101A1000E0E832D091505040E695001CCAF72BD038
:101A2000FE2F29D0660F771F881FBB1F2617370789
:101A30004807AB07B0E809F0BB0B802DBF01FF27BB
:101A400093585F4F3AF09E3F510578F00C94E40DA7
:101A50000C942F0E5F3FE4F3983ED4F38695779570
:101A60006795B795F7959F5FC9F7880F911D969574
:101A7000879597F90895E1E0660F771F881FBB1FD0
:101A8000621773078407BA0720F0621B730B840B7D
:101A9000BA0BEE1F88F7E09508950E94540D6894E4
:101AA000B1110C942F0E08950E94140E88F09F57C8
:101AB00098F0B92F9927B751B0F0E1F0660F771F72
:101AC000881F991F1AF0BA95C9F714C0B13091F068
:101AD0000E942E0EB1E008950C942E0E672F782FE1
:101AE0008827B85F39F0B93FCCF38695779567952D
:101AF000B395D9F73EF490958095709561957F4F99
:101B00008F4F9F4F0895E89409C097FB3EF490953E
:101B10008095709561957F4F8F4F9F4F9923A9F0C6
:101B2000F92F96E9BB279395F69587957795679555
:101B3000B795F111F8CFFAF4BB0F11F460FF1BC099
:101B40006F5F7F4F8F4F9F4F16C0882311F096E92C
:101B500011C0772321F09EE8872F762F05C06623DA
:101B600071F096E8862F70E060E02AF09A95660F93
:101B7000771F881FDAF7880F9695879597F908954C
:101B8000990F0008550FAA0BE0E8FEEF161617068E
:101B9000E807F907C0F012161306E407F50798F0F6
:101BA000621B730B840B950B39F40A2661F0232B0F
:101BB000242B252B21F408950A2609F4A140A6958B
:101BC0008FEF811D811D089597F99F6780E870E070
:101BD00060E008959FEF80EC089500240A941616A3
:101BE000170618060906089500240A94121613060B
:101BF000140605060895092E0394000C11F4882399
:101C000052F0BB0F40F4BF2B11F460FF04C06F5FB4
:101C10007F4F8F4F9F4F089557FD9058440F551F8A
:101C200059F05F3F71F04795880F97FB991F61F05E
:101C30009F3F79F087950895121613061406551FD5
:101C4000F2CF4695F1DF08C0161617061806991F41
:101C5000F1CF86957105610508940895E894BB2736
:101C600066277727CB0197F908950E94480E0C94B8
:101C7000FB0D0E94ED0D38F00E94F40D20F095232D
:101C800011F00C94E40D0C94EA0D11240C942F0E19
:101C90000E940C0E70F3959FC1F3950F50E0551FF5
:101CA000629FF001729FBB27F00DB11D639FAA27B1
:101CB000F00DB11DAA1F649F6627B00DA11D661F00
:101CC000829F2227B00DA11D621F739FB00DA11D21
:101CD000621F839FA00D611D221F749F3327A00DDB
:101CE000611D231F849F600D211D822F762F6A2F77
:101CF00011249F5750409AF0F1F088234AF0EE0FDC
:101D0000FF1FBB1F661F771F881F91505040A9F708
:101D10009E3F510580F00C94E40D0C942F0E5F3F14
:101D2000E4F3983ED4F3869577956795B795F79544
:101D3000E7959F5FC1F7FE2B880F911D96958795BC
:101D400097F90895DB018F939F930E94D40EBF9162
:101D5000AF91A29F800D911DA39F900DB29F900DFA
:101D600011240895A1E21A2EAA1BBB1BFD010DC070
:101D7000AA1FBB1FEE1FFF1FA217B307E407F5073B
:101D800020F0A21BB30BE40BF50B661F771F881F17
:101D9000991F1A9469F760957095809590959B01AD
:101DA000AC01BD01CF0108950E941C0FA59F900DAD
:101DB000B49F900DA49F800D911D112408950F9341
:101DC000083090F0982F872F762F652F542F432FB0
:101DD000322F22270850F4CF220F331F441F551FE4
:101DE000661F771F881F991F0A95B2F70F910895F4
:101DF00097FB10F8169400080F93083098F00850DD
:101E0000232F342F452F562F672F782F892F902D72
:101E1000F4CF05949795879577956795579547954E
:101E2000379527950A95AAF70F910895EE0FFF1F92
:101E30000590F491E02D0994A29FB001B39FC001D9
:101E4000A39F700D811D1124911DB29F700D811DE6
:101E50001124911D089581E090E0F8940C94300FC6
:041E6000F894FFCF24
:101E640002000000000023018C00BA007001EB00A6
:101E7400C900DD00456E61626C696E672049526974
:101E84006E00456E61626C6564204952696E005053
:101E94006F727420002073756363657373000D0A99
:021EA40000003C
:00000001FF
